:020000040000FA
:020000003628A0
:040002000034003492
:08000800F000030E8312F10069
:10001000831203130B190D2819288E208312031342
:100020000B110310831203138101831203130B10AE
:10003000312883120313FF30F200F20B1D288312C4
:1000400003130B10831203130618312883120313B2
:100050007308013EF300831203138101831203131B
:100060000B10710E8300F00E700E09003820372837
:10007000831203138B138B168316031381018112D2
:100080008111831203138B15831603131614831621
:1000900003130F138F160F12831203138701831696
:1000A000031700308800831603130030870083167F
:1000B000031700308900831203138601831603138C
:1000C000FF30860083160313950183120313850105
:1000D00083160313003085008316031381118316E2
:1000E0000313011581140114831203138101A0016C
:1000F000831203138B17080082073F3406345B34E6
:100100004F3466346D347D3407347F346F34773444
:100110007C3439345E34793471340800831203132B
:10012000731C962883120313A003992883120313C8
:10013000A00A2008F03E831203130318A028A82861
:100140008312031303108312031385030930A000E5
:1001500020080A3A831203130319AF28B328A00119
:1001600083120313850A03118312031320087C20D2
:100170008700831203130B1183120313031008006B
:02400E00F53388
:02401000FF3F70
:00000001FF
