:020000040000FA
:020000001F28B7
:040002000034003492
:08000800F000030E8312F10069
:100010008312031309308500831203138312031321
:10002000F20A7208730883120313383081078312AF
:1000300003130B11710E8300F00E700E090089205E
:100040008312031306088312031372088312031327
:10005000720883120313F63E031C3628831203131F
:10006000F201831203137308013EF300831203139A
:10007000730883120313F63E031C4A2883120313EA
:10008000F30183120313F301831203138701831215
:1000900003137410831203137708831203136F3E44
:1000A000031C552883120313F70183120313861EC2
:1000B00016218312031374186828831203138618F9
:1000C000682883120313F20183120313F3017414DB
:1000D00083120313741C862883120313061A8628BE
:1000E000D520831203137708103EF700EA20E120A1
:1000F000E120E12083120313F30183120313F301C0
:100100008312031374108312031387017418D5200C
:100110002028831203138B138316031700308800E3
:100120008316031700308900831203138501831699
:100130000313850183120313860183160313FF3013
:1001400006088312031387018316031387018312A2
:1001500003138801831603138801831203138B167C
:10016000831603130F178F120F16831603138112B2
:100170008111011581140114831203138101F5010A
:1001800083120313F20183120313F3018312031387
:10019000F40183120313F701831203138101383032
:1001A0008107831203138B17080000308312031397
:1001B0007207720E831203137307831203138700EF
:1001C0000800FF30F600FF30F500F50BE528F60BD0
:1001D000E3280800831203138B13D520831203171F
:1001E00083120313770E831203178D0083120313F8
:1001F0000708831203178C00831603178C130C1542
:100200008B138B1B002955308D00AA308D008C1468
:100210008B170C118312031383120313831203131E
:100220008B177708831203138800080083120313C7
:100230007418080083120313F801E120E120E12083
:10024000861E592983120313061A2729F80A8312D6
:10025000031386182C29F8038312031378088312DA
:100260000313F63E031C3529F801831203137808A3
:1002700083120313FF3A031D422983120313F8016B
:100280000930F800831203137808831203178D00D6
:10029000831603178C130C14831203170C08031313
:1002A00083120313870083120313780E8800E12062
:1002B0002029831203130030870083120313770869
:0C02C000831203138800E120E1200800F5
:02400E00F53388
:02401000FF3F70
:00000001FF
